{
  "contractName": "smartexpense",
  "abi": [
    {
      "constant": true,
      "inputs": [],
      "name": "taskCount",
      "outputs": [
        {
          "internalType": "uint256",
          "name": "",
          "type": "uint256"
        }
      ],
      "payable": false,
      "stateMutability": "view",
      "type": "function"
    },
    {
      "constant": true,
      "inputs": [
        {
          "internalType": "uint256",
          "name": "",
          "type": "uint256"
        }
      ],
      "name": "tasks",
      "outputs": [
        {
          "internalType": "uint256",
          "name": "id",
          "type": "uint256"
        },
        {
          "internalType": "uint256",
          "name": "cost",
          "type": "uint256"
        },
        {
          "internalType": "string",
          "name": "details",
          "type": "string"
        }
      ],
      "payable": false,
      "stateMutability": "view",
      "type": "function"
    },
    {
      "constant": true,
      "inputs": [],
      "name": "total",
      "outputs": [
        {
          "internalType": "uint256",
          "name": "",
          "type": "uint256"
        }
      ],
      "payable": false,
      "stateMutability": "view",
      "type": "function"
    },
    {
      "constant": false,
      "inputs": [
        {
          "internalType": "uint256",
          "name": "_cost",
          "type": "uint256"
        },
        {
          "internalType": "string",
          "name": "_details",
          "type": "string"
        }
      ],
      "name": "createTask",
      "outputs": [],
      "payable": false,
      "stateMutability": "nonpayable",
      "type": "function"
    }
  ],
  "bytecode": "0x608060405260008055600060015534801561001957600080fd5b506103b1806100296000396000f3fe608060405234801561001057600080fd5b506004361061004c5760003560e01c806316d41b94146100515780632ddbd13a146101005780638d9776721461011a578063b6cb58a5146101bd575b600080fd5b6100fe6004803603604081101561006757600080fd5b8135919081019060408101602082013564010000000081111561008957600080fd5b82018360208201111561009b57600080fd5b803590602001918460018302840111640100000000831117156100bd57600080fd5b91908080601f0160208091040260200160405190810160405280939291908181526020018383808284376000920191909152509295506101c5945050505050565b005b61010861022b565b60408051918252519081900360200190f35b6101376004803603602081101561013057600080fd5b5035610231565b6040518084815260200183815260200180602001828103825283818151815260200191508051906020019080838360005b83811015610180578181015183820152602001610168565b50505050905090810190601f1680156101ad5780820380516001836020036101000a031916815260200191505b5094505050505060405180910390f35b6101086102db565b6001805481018082556000805485018155604080516060810182528381526020808201888152828401888152958552600280835293909420825181559351958401959095559251805193949293610224939285019291909101906102e1565b5050505050565b60005481565b6002602081815260009283526040928390208054600180830154838601805488519381161561010002600019011696909604601f8101869004860283018601909752868252919591949293909291908301828280156102d15780601f106102a6576101008083540402835291602001916102d1565b820191906000526020600020905b8154815290600101906020018083116102b457829003601f168201915b5050505050905083565b60015481565b828054600181600116156101000203166002900490600052602060002090601f016020900481019282601f1061032257805160ff191683800117855561034f565b8280016001018555821561034f579182015b8281111561034f578251825591602001919060010190610334565b5061035b92915061035f565b5090565b61037991905b8082111561035b5760008155600101610365565b9056fea265627a7a72315820375d62d02d4ecfdc71ab34d995cb82732934fc75ced6fc289b7c55efa5c36d5564736f6c63430005100032",
  "source": "pragma solidity >=0.4.22 <0.9.0;\ncontract smartexpense\n{\n    uint public total = 0; \n    uint public taskCount = 0;\n    struct Task{\n        uint id;\n        uint cost;\n        string details;       \n    }\n\n    mapping(uint => Task) public tasks;\n\n    \n    function createTask(uint _cost,string memory _details) public{\n        taskCount++;\n        total = total + _cost;\n        tasks[taskCount] = Task(taskCount,_cost,_details);\n\n    }\n\n    \n\n\n}",
  "sourcePath": "/home/lenovo/smartexpense/contracts/smartexpense.sol",
  "compiler": {
    "name": "solc",
    "version": "0.5.16+commit.9c3226ce.Emscripten.clang"
  },
  "schemaVersion": "3.3.4",
  "updatedAt": "2021-03-01T17:02:27.999Z",
  "networkType": "ethereum",
  "devdoc": {
    "methods": {}
  },
  "userdoc": {
    "methods": {}
  }
}